{
  "_format": "hh-sol-artifact-1",
  "contractName": "SocialMedia",
  "sourceName": "contracts/SocialMedia.sol",
  "abi": [
    {
      "anonymous": false,
      "inputs": [
        {
          "indexed": false,
          "internalType": "uint256",
          "name": "id",
          "type": "uint256"
        },
        {
          "indexed": false,
          "internalType": "string",
          "name": "imageHash",
          "type": "string"
        },
        {
          "indexed": false,
          "internalType": "string",
          "name": "description",
          "type": "string"
        },
        {
          "indexed": false,
          "internalType": "address",
          "name": "author",
          "type": "address"
        }
      ],
      "name": "PostCreated",
      "type": "event"
    },
    {
      "inputs": [
        {
          "internalType": "string",
          "name": "_imageHash",
          "type": "string"
        },
        {
          "internalType": "string",
          "name": "_description",
          "type": "string"
        }
      ],
      "name": "createPost",
      "outputs": [],
      "stateMutability": "nonpayable",
      "type": "function"
    },
    {
      "inputs": [
        {
          "internalType": "uint256",
          "name": "_id",
          "type": "uint256"
        }
      ],
      "name": "getPost",
      "outputs": [
        {
          "components": [
            {
              "internalType": "uint256",
              "name": "id",
              "type": "uint256"
            },
            {
              "internalType": "string",
              "name": "imageHash",
              "type": "string"
            },
            {
              "internalType": "string",
              "name": "description",
              "type": "string"
            },
            {
              "internalType": "address",
              "name": "author",
              "type": "address"
            }
          ],
          "internalType": "struct SocialMedia.Post",
          "name": "",
          "type": "tuple"
        }
      ],
      "stateMutability": "view",
      "type": "function"
    },
    {
      "inputs": [],
      "name": "postCount",
      "outputs": [
        {
          "internalType": "uint256",
          "name": "",
          "type": "uint256"
        }
      ],
      "stateMutability": "view",
      "type": "function"
    },
    {
      "inputs": [
        {
          "internalType": "uint256",
          "name": "",
          "type": "uint256"
        }
      ],
      "name": "posts",
      "outputs": [
        {
          "internalType": "uint256",
          "name": "id",
          "type": "uint256"
        },
        {
          "internalType": "string",
          "name": "imageHash",
          "type": "string"
        },
        {
          "internalType": "string",
          "name": "description",
          "type": "string"
        },
        {
          "internalType": "address",
          "name": "author",
          "type": "address"
        }
      ],
      "stateMutability": "view",
      "type": "function"
    }
  ],
  "bytecode": "0x608060405260008055348015601357600080fd5b50610d5b806100236000396000f3fe608060405234801561001057600080fd5b506004361061004c5760003560e01c80630b1e7f831461005157806317906c2e14610084578063392338f5146100a257806340731c24146100be575b600080fd5b61006b600480360381019061006691906105b4565b6100ee565b60405161007b94939291906106c1565b60405180910390f35b61008c61024e565b6040516100999190610714565b60405180910390f35b6100bc60048036038101906100b79190610864565b610254565b005b6100d860048036038101906100d391906105b4565b61037b565b6040516100e591906109ae565b60405180910390f35b6001602052806000526040600020600091509050806000015490806001018054610117906109ff565b80601f0160208091040260200160405190810160405280929190818152602001828054610143906109ff565b80156101905780601f1061016557610100808354040283529160200191610190565b820191906000526020600020905b81548152906001019060200180831161017357829003601f168201915b5050505050908060020180546101a5906109ff565b80601f01602080910402602001604051908101604052809291908181526020018280546101d1906109ff565b801561021e5780601f106101f35761010080835404028352916020019161021e565b820191906000526020600020905b81548152906001019060200180831161020157829003601f168201915b5050505050908060030160009054906101000a900473ffffffffffffffffffffffffffffffffffffffff16905084565b60005481565b60008081548092919061026690610a5f565b9190505550604051806080016040528060005481526020018381526020018281526020013373ffffffffffffffffffffffffffffffffffffffff1681525060016000805481526020019081526020016000206000820151816000015560208201518160010190816102d79190610c53565b5060408201518160020190816102ed9190610c53565b5060608201518160030160006101000a81548173ffffffffffffffffffffffffffffffffffffffff021916908373ffffffffffffffffffffffffffffffffffffffff1602179055509050507fb80f87406b72baa5a47a424e6c8f284ee91e4fef063c94c62ab1ea33a27a858b60005483833360405161036f94939291906106c1565b60405180910390a15050565b61038361052c565b60016000838152602001908152602001600020604051806080016040529081600082015481526020016001820180546103bb906109ff565b80601f01602080910402602001604051908101604052809291908181526020018280546103e7906109ff565b80156104345780601f1061040957610100808354040283529160200191610434565b820191906000526020600020905b81548152906001019060200180831161041757829003601f168201915b5050505050815260200160028201805461044d906109ff565b80601f0160208091040260200160405190810160405280929190818152602001828054610479906109ff565b80156104c65780601f1061049b576101008083540402835291602001916104c6565b820191906000526020600020905b8154815290600101906020018083116104a957829003601f168201915b505050505081526020016003820160009054906101000a900473ffffffffffffffffffffffffffffffffffffffff1673ffffffffffffffffffffffffffffffffffffffff1673ffffffffffffffffffffffffffffffffffffffff16815250509050919050565b6040518060800160405280600081526020016060815260200160608152602001600073ffffffffffffffffffffffffffffffffffffffff1681525090565b6000604051905090565b600080fd5b600080fd5b6000819050919050565b6105918161057e565b811461059c57600080fd5b50565b6000813590506105ae81610588565b92915050565b6000602082840312156105ca576105c9610574565b5b60006105d88482850161059f565b91505092915050565b6105ea8161057e565b82525050565b600081519050919050565b600082825260208201905092915050565b60005b8381101561062a57808201518184015260208101905061060f565b60008484015250505050565b6000601f19601f8301169050919050565b6000610652826105f0565b61065c81856105fb565b935061066c81856020860161060c565b61067581610636565b840191505092915050565b600073ffffffffffffffffffffffffffffffffffffffff82169050919050565b60006106ab82610680565b9050919050565b6106bb816106a0565b82525050565b60006080820190506106d660008301876105e1565b81810360208301526106e88186610647565b905081810360408301526106fc8185610647565b905061070b60608301846106b2565b95945050505050565b600060208201905061072960008301846105e1565b92915050565b600080fd5b600080fd5b7f4e487b7100000000000000000000000000000000000000000000000000000000600052604160045260246000fd5b61077182610636565b810181811067ffffffffffffffff821117156107905761078f610739565b5b80604052505050565b60006107a361056a565b90506107af8282610768565b919050565b600067ffffffffffffffff8211156107cf576107ce610739565b5b6107d882610636565b9050602081019050919050565b82818337600083830152505050565b6000610807610802846107b4565b610799565b90508281526020810184848401111561082357610822610734565b5b61082e8482856107e5565b509392505050565b600082601f83011261084b5761084a61072f565b5b813561085b8482602086016107f4565b91505092915050565b6000806040838503121561087b5761087a610574565b5b600083013567ffffffffffffffff81111561089957610898610579565b5b6108a585828601610836565b925050602083013567ffffffffffffffff8111156108c6576108c5610579565b5b6108d285828601610836565b9150509250929050565b6108e58161057e565b82525050565b600082825260208201905092915050565b6000610907826105f0565b61091181856108eb565b935061092181856020860161060c565b61092a81610636565b840191505092915050565b61093e816106a0565b82525050565b600060808301600083015161095c60008601826108dc565b506020830151848203602086015261097482826108fc565b9150506040830151848203604086015261098e82826108fc565b91505060608301516109a36060860182610935565b508091505092915050565b600060208201905081810360008301526109c88184610944565b905092915050565b7f4e487b7100000000000000000000000000000000000000000000000000000000600052602260045260246000fd5b60006002820490506001821680610a1757607f821691505b602082108103610a2a57610a296109d0565b5b50919050565b7f4e487b7100000000000000000000000000000000000000000000000000000000600052601160045260246000fd5b6000610a6a8261057e565b91507fffffffffffffffffffffffffffffffffffffffffffffffffffffffffffffffff8203610a9c57610a9b610a30565b5b600182019050919050565b60008190508160005260206000209050919050565b60006020601f8301049050919050565b600082821b905092915050565b600060088302610b097fffffffffffffffffffffffffffffffffffffffffffffffffffffffffffffffff82610acc565b610b138683610acc565b95508019841693508086168417925050509392505050565b6000819050919050565b6000610b50610b4b610b468461057e565b610b2b565b61057e565b9050919050565b6000819050919050565b610b6a83610b35565b610b7e610b7682610b57565b848454610ad9565b825550505050565b600090565b610b93610b86565b610b9e818484610b61565b505050565b5b81811015610bc257610bb7600082610b8b565b600181019050610ba4565b5050565b601f821115610c0757610bd881610aa7565b610be184610abc565b81016020851015610bf0578190505b610c04610bfc85610abc565b830182610ba3565b50505b505050565b600082821c905092915050565b6000610c2a60001984600802610c0c565b1980831691505092915050565b6000610c438383610c19565b9150826002028217905092915050565b610c5c826105f0565b67ffffffffffffffff811115610c7557610c74610739565b5b610c7f82546109ff565b610c8a828285610bc6565b600060209050601f831160018114610cbd5760008415610cab578287015190505b610cb58582610c37565b865550610d1d565b601f198416610ccb86610aa7565b60005b82811015610cf357848901518255600182019150602085019450602081019050610cce565b86831015610d105784890151610d0c601f891682610c19565b8355505b6001600288020188555050505b50505050505056fea26469706673582212205e39f6506d66247c894fd1b4032baa68217c3cde8ebd60e511b55680a33c2c4064736f6c634300081c0033",
  "linkReferences": {},
  "deployedLinkReferences": {}
}